{
  "_format": "hh-sol-artifact-1",
  "contractName": "GymSubscription",
  "sourceName": "contracts/GymSubscription.sol",
  "abi": [
    {
      "inputs": [
        {
          "internalType": "address",
          "name": "gymStoreContract",
          "type": "address"
        }
      ],
      "stateMutability": "nonpayable",
      "type": "constructor"
    },
    {
      "anonymous": false,
      "inputs": [
        {
          "indexed": true,
          "internalType": "address",
          "name": "owner",
          "type": "address"
        },
        {
          "indexed": true,
          "internalType": "address",
          "name": "approved",
          "type": "address"
        },
        {
          "indexed": true,
          "internalType": "uint256",
          "name": "tokenId",
          "type": "uint256"
        }
      ],
      "name": "Approval",
      "type": "event"
    },
    {
      "anonymous": false,
      "inputs": [
        {
          "indexed": true,
          "internalType": "address",
          "name": "owner",
          "type": "address"
        },
        {
          "indexed": true,
          "internalType": "address",
          "name": "operator",
          "type": "address"
        },
        {
          "indexed": false,
          "internalType": "bool",
          "name": "approved",
          "type": "bool"
        }
      ],
      "name": "ApprovalForAll",
      "type": "event"
    },
    {
      "anonymous": false,
      "inputs": [
        {
          "indexed": false,
          "internalType": "uint256",
          "name": "_fromTokenId",
          "type": "uint256"
        },
        {
          "indexed": false,
          "internalType": "uint256",
          "name": "_toTokenId",
          "type": "uint256"
        }
      ],
      "name": "BatchMetadataUpdate",
      "type": "event"
    },
    {
      "anonymous": false,
      "inputs": [
        {
          "indexed": false,
          "internalType": "uint256",
          "name": "_tokenId",
          "type": "uint256"
        }
      ],
      "name": "MetadataUpdate",
      "type": "event"
    },
    {
      "anonymous": false,
      "inputs": [
        {
          "indexed": true,
          "internalType": "address",
          "name": "from",
          "type": "address"
        },
        {
          "indexed": true,
          "internalType": "address",
          "name": "to",
          "type": "address"
        },
        {
          "indexed": true,
          "internalType": "uint256",
          "name": "tokenId",
          "type": "uint256"
        }
      ],
      "name": "Transfer",
      "type": "event"
    },
    {
      "inputs": [
        {
          "internalType": "uint256",
          "name": "_storeId",
          "type": "uint256"
        }
      ],
      "name": "GetStoreAddressForSubscription",
      "outputs": [
        {
          "internalType": "uint256",
          "name": "",
          "type": "uint256"
        },
        {
          "internalType": "string",
          "name": "",
          "type": "string"
        },
        {
          "internalType": "string",
          "name": "",
          "type": "string"
        },
        {
          "internalType": "string",
          "name": "",
          "type": "string"
        },
        {
          "internalType": "string",
          "name": "",
          "type": "string"
        },
        {
          "internalType": "address",
          "name": "",
          "type": "address"
        },
        {
          "internalType": "uint256",
          "name": "",
          "type": "uint256"
        }
      ],
      "stateMutability": "view",
      "type": "function"
    },
    {
      "inputs": [],
      "name": "GetStoreIdForSubscription",
      "outputs": [
        {
          "internalType": "uint256",
          "name": "",
          "type": "uint256"
        }
      ],
      "stateMutability": "view",
      "type": "function"
    },
    {
      "inputs": [
        {
          "internalType": "uint256",
          "name": "_storeId",
          "type": "uint256"
        }
      ],
      "name": "GetSubscriptionData",
      "outputs": [
        {
          "components": [
            {
              "internalType": "uint256",
              "name": "tokenId",
              "type": "uint256"
            },
            {
              "internalType": "uint256",
              "name": "storeId",
              "type": "uint256"
            },
            {
              "internalType": "string",
              "name": "memberName",
              "type": "string"
            },
            {
              "internalType": "string",
              "name": "image",
              "type": "string"
            },
            {
              "internalType": "string",
              "name": "ipfsHash",
              "type": "string"
            },
            {
              "internalType": "address",
              "name": "owner",
              "type": "address"
            },
            {
              "internalType": "uint256",
              "name": "createdAt",
              "type": "uint256"
            },
            {
              "internalType": "uint256",
              "name": "invalidAfter",
              "type": "uint256"
            }
          ],
          "internalType": "struct GymSubscription.storeSubscription[]",
          "name": "",
          "type": "tuple[]"
        }
      ],
      "stateMutability": "view",
      "type": "function"
    },
    {
      "inputs": [
        {
          "internalType": "address",
          "name": "userAddr",
          "type": "address"
        }
      ],
      "name": "GetUserSubscriptions",
      "outputs": [
        {
          "components": [
            {
              "internalType": "uint256",
              "name": "tokenId",
              "type": "uint256"
            },
            {
              "internalType": "uint256",
              "name": "storeId",
              "type": "uint256"
            },
            {
              "internalType": "string",
              "name": "memberName",
              "type": "string"
            },
            {
              "internalType": "string",
              "name": "image",
              "type": "string"
            },
            {
              "internalType": "string",
              "name": "ipfsHash",
              "type": "string"
            },
            {
              "internalType": "address",
              "name": "owner",
              "type": "address"
            },
            {
              "internalType": "uint256",
              "name": "createdAt",
              "type": "uint256"
            },
            {
              "internalType": "uint256",
              "name": "invalidAfter",
              "type": "uint256"
            }
          ],
          "internalType": "struct GymSubscription.storeSubscription[]",
          "name": "",
          "type": "tuple[]"
        }
      ],
      "stateMutability": "view",
      "type": "function"
    },
    {
      "inputs": [
        {
          "internalType": "address",
          "name": "to",
          "type": "address"
        },
        {
          "internalType": "uint256",
          "name": "tokenId",
          "type": "uint256"
        }
      ],
      "name": "approve",
      "outputs": [],
      "stateMutability": "nonpayable",
      "type": "function"
    },
    {
      "inputs": [
        {
          "internalType": "address",
          "name": "owner",
          "type": "address"
        }
      ],
      "name": "balanceOf",
      "outputs": [
        {
          "internalType": "uint256",
          "name": "",
          "type": "uint256"
        }
      ],
      "stateMutability": "view",
      "type": "function"
    },
    {
      "inputs": [
        {
          "internalType": "uint256",
          "name": "storeId",
          "type": "uint256"
        },
        {
          "internalType": "string",
          "name": "memberName",
          "type": "string"
        },
        {
          "internalType": "string",
          "name": "image",
          "type": "string"
        },
        {
          "internalType": "string",
          "name": "ipfsHash",
          "type": "string"
        },
        {
          "internalType": "address",
          "name": "ownerAddress",
          "type": "address"
        },
        {
          "internalType": "uint256",
          "name": "invalidAfter",
          "type": "uint256"
        }
      ],
      "name": "createSubscription",
      "outputs": [],
      "stateMutability": "nonpayable",
      "type": "function"
    },
    {
      "inputs": [
        {
          "internalType": "uint256",
          "name": "tokenId",
          "type": "uint256"
        }
      ],
      "name": "getApproved",
      "outputs": [
        {
          "internalType": "address",
          "name": "",
          "type": "address"
        }
      ],
      "stateMutability": "view",
      "type": "function"
    },
    {
      "inputs": [
        {
          "internalType": "address",
          "name": "userAddr",
          "type": "address"
        }
      ],
      "name": "hasStoreSubscription",
      "outputs": [
        {
          "internalType": "bool",
          "name": "",
          "type": "bool"
        }
      ],
      "stateMutability": "view",
      "type": "function"
    },
    {
      "inputs": [
        {
          "internalType": "address",
          "name": "owner",
          "type": "address"
        },
        {
          "internalType": "address",
          "name": "operator",
          "type": "address"
        }
      ],
      "name": "isApprovedForAll",
      "outputs": [
        {
          "internalType": "bool",
          "name": "",
          "type": "bool"
        }
      ],
      "stateMutability": "view",
      "type": "function"
    },
    {
      "inputs": [
        {
          "internalType": "uint256",
          "name": "val",
          "type": "uint256"
        }
      ],
      "name": "makePaymentToStore",
      "outputs": [],
      "stateMutability": "nonpayable",
      "type": "function"
    },
    {
      "inputs": [],
      "name": "name",
      "outputs": [
        {
          "internalType": "string",
          "name": "",
          "type": "string"
        }
      ],
      "stateMutability": "view",
      "type": "function"
    },
    {
      "inputs": [
        {
          "internalType": "uint256",
          "name": "tokenId",
          "type": "uint256"
        }
      ],
      "name": "ownerOf",
      "outputs": [
        {
          "internalType": "address",
          "name": "",
          "type": "address"
        }
      ],
      "stateMutability": "view",
      "type": "function"
    },
    {
      "inputs": [
        {
          "internalType": "address",
          "name": "from",
          "type": "address"
        },
        {
          "internalType": "address",
          "name": "to",
          "type": "address"
        },
        {
          "internalType": "uint256",
          "name": "tokenId",
          "type": "uint256"
        }
      ],
      "name": "safeTransferFrom",
      "outputs": [],
      "stateMutability": "nonpayable",
      "type": "function"
    },
    {
      "inputs": [
        {
          "internalType": "address",
          "name": "from",
          "type": "address"
        },
        {
          "internalType": "address",
          "name": "to",
          "type": "address"
        },
        {
          "internalType": "uint256",
          "name": "tokenId",
          "type": "uint256"
        },
        {
          "internalType": "bytes",
          "name": "data",
          "type": "bytes"
        }
      ],
      "name": "safeTransferFrom",
      "outputs": [],
      "stateMutability": "nonpayable",
      "type": "function"
    },
    {
      "inputs": [
        {
          "internalType": "address",
          "name": "operator",
          "type": "address"
        },
        {
          "internalType": "bool",
          "name": "approved",
          "type": "bool"
        }
      ],
      "name": "setApprovalForAll",
      "outputs": [],
      "stateMutability": "nonpayable",
      "type": "function"
    },
    {
      "inputs": [
        {
          "internalType": "bytes4",
          "name": "interfaceId",
          "type": "bytes4"
        }
      ],
      "name": "supportsInterface",
      "outputs": [
        {
          "internalType": "bool",
          "name": "",
          "type": "bool"
        }
      ],
      "stateMutability": "view",
      "type": "function"
    },
    {
      "inputs": [],
      "name": "symbol",
      "outputs": [
        {
          "internalType": "string",
          "name": "",
          "type": "string"
        }
      ],
      "stateMutability": "view",
      "type": "function"
    },
    {
      "inputs": [
        {
          "internalType": "uint256",
          "name": "tokenId",
          "type": "uint256"
        }
      ],
      "name": "tokenURI",
      "outputs": [
        {
          "internalType": "string",
          "name": "",
          "type": "string"
        }
      ],
      "stateMutability": "view",
      "type": "function"
    },
    {
      "inputs": [
        {
          "internalType": "address",
          "name": "from",
          "type": "address"
        },
        {
          "internalType": "address",
          "name": "to",
          "type": "address"
        },
        {
          "internalType": "uint256",
          "name": "tokenId",
          "type": "uint256"
        }
      ],
      "name": "transferFrom",
      "outputs": [],
      "stateMutability": "nonpayable",
      "type": "function"
    },
    {
      "inputs": [
        {
          "internalType": "uint256",
          "name": "sId",
          "type": "uint256"
        },
        {
          "internalType": "address",
          "name": "transferAddr",
          "type": "address"
        }
      ],
      "name": "transferSubscription",
      "outputs": [
        {
          "internalType": "bool",
          "name": "",
          "type": "bool"
        }
      ],
      "stateMutability": "nonpayable",
      "type": "function"
    }
  ],
  "bytecode": "0x608060405260016008553480156200001657600080fd5b506040516200453e3803806200453e83398181016040528101906200003c919062000180565b6040518060400160405280601281526020017f47796d537562736372697074696f6e4e465400000000000000000000000000008152506040518060400160405280600481526020017f47534654000000000000000000000000000000000000000000000000000000008152508160009081620000b991906200042c565b508060019081620000cb91906200042c565b50505080600760006101000a81548173ffffffffffffffffffffffffffffffffffffffff021916908373ffffffffffffffffffffffffffffffffffffffff1602179055505062000513565b600080fd5b600073ffffffffffffffffffffffffffffffffffffffff82169050919050565b600062000148826200011b565b9050919050565b6200015a816200013b565b81146200016657600080fd5b50565b6000815190506200017a816200014f565b92915050565b60006020828403121562000199576200019862000116565b5b6000620001a98482850162000169565b91505092915050565b600081519050919050565b7f4e487b7100000000000000000000000000000000000000000000000000000000600052604160045260246000fd5b7f4e487b7100000000000000000000000000000000000000000000000000000000600052602260045260246000fd5b600060028204905060018216806200023457607f821691505b6020821081036200024a5762000249620001ec565b5b50919050565b60008190508160005260206000209050919050565b60006020601f8301049050919050565b600082821b905092915050565b600060088302620002b47fffffffffffffffffffffffffffffffffffffffffffffffffffffffffffffffff8262000275565b620002c0868362000275565b95508019841693508086168417925050509392505050565b6000819050919050565b6000819050919050565b60006200030d620003076200030184620002d8565b620002e2565b620002d8565b9050919050565b6000819050919050565b6200032983620002ec565b62000341620003388262000314565b84845462000282565b825550505050565b600090565b6200035862000349565b620003658184846200031e565b505050565b5b818110156200038d57620003816000826200034e565b6001810190506200036b565b5050565b601f821115620003dc57620003a68162000250565b620003b18462000265565b81016020851015620003c1578190505b620003d9620003d08562000265565b8301826200036a565b50505b505050565b600082821c905092915050565b60006200040160001984600802620003e1565b1980831691505092915050565b60006200041c8383620003ee565b9150826002028217905092915050565b6200043782620001b2565b67ffffffffffffffff811115620004535762000452620001bd565b5b6200045f82546200021b565b6200046c82828562000391565b600060209050601f831160018114620004a457600084156200048f578287015190505b6200049b85826200040e565b8655506200050b565b601f198416620004b48662000250565b60005b82811015620004de57848901518255600182019150602085019450602081019050620004b7565b86831015620004fe5784890151620004fa601f891682620003ee565b8355505b6001600288020188555050505b505050505050565b61401b80620005236000396000f3fe608060405234801561001057600080fd5b50600436106101375760003560e01c806370a08231116100b8578063ad2eef0e1161007c578063ad2eef0e1461038a578063b88d4fde146103a6578063c87b56dd146103c2578063e985e9c5146103f2578063ee1f45f714610422578063ef50f6a81461044057610137565b806370a08231146102c057806395d89b41146102f0578063a0ed6bc61461030e578063a22cb4651461033e578063aa3805891461035a57610137565b806323b872dd116100ff57806323b872dd1461020c5780633bab61f01461022857806342842e0e146102445780636195b657146102605780636352211e1461029057610137565b806301ffc9a71461013c57806306fdde031461016c578063081812fc1461018a578063095ea7b3146101ba578063114e2e41146101d6575b600080fd5b610156600480360381019061015191906128d0565b610470565b6040516101639190612918565b60405180910390f35b6101746104d1565b60405161018191906129c3565b60405180910390f35b6101a4600480360381019061019f9190612a1b565b610563565b6040516101b19190612a89565b60405180910390f35b6101d460048036038101906101cf9190612ad0565b6105a9565b005b6101f060048036038101906101eb9190612a1b565b6106c0565b6040516102039796959493929190612b1f565b60405180910390f35b61022660048036038101906102219190612baa565b610785565b005b610242600480360381019061023d9190612d32565b6107e5565b005b61025e60048036038101906102599190612baa565b610991565b005b61027a60048036038101906102759190612e13565b6109b1565b6040516102879190612918565b60405180910390f35b6102aa60048036038101906102a59190612a1b565b610a66565b6040516102b79190612a89565b60405180910390f35b6102da60048036038101906102d59190612e13565b610aec565b6040516102e79190612e40565b60405180910390f35b6102f8610ba3565b60405161030591906129c3565b60405180910390f35b61032860048036038101906103239190612e5b565b610c35565b6040516103359190612918565b60405180910390f35b61035860048036038101906103539190612ec7565b610d00565b005b610374600480360381019061036f9190612e13565b610d16565b60405161038191906130ef565b60405180910390f35b6103a4600480360381019061039f9190612a1b565b61115b565b005b6103c060048036038101906103bb91906131b2565b6112d6565b005b6103dc60048036038101906103d79190612a1b565b611338565b6040516103e991906129c3565b60405180910390f35b61040c60048036038101906104079190613235565b61144a565b6040516104199190612918565b60405180910390f35b61042a6114de565b6040516104379190612e40565b60405180910390f35b61045a60048036038101906104559190612a1b565b611576565b60405161046791906130ef565b60405180910390f35b6000634906490660e01b7bffffffffffffffffffffffffffffffffffffffffffffffffffffffff1916827bffffffffffffffffffffffffffffffffffffffffffffffffffffffff191614806104ca57506104c9826118c6565b5b9050919050565b6060600080546104e0906132a4565b80601f016020809104026020016040519081016040528092919081815260200182805461050c906132a4565b80156105595780601f1061052e57610100808354040283529160200191610559565b820191906000526020600020905b81548152906001019060200180831161053c57829003601f168201915b5050505050905090565b600061056e826119a8565b6004600083815260200190815260200160002060009054906101000a900473ffffffffffffffffffffffffffffffffffffffff169050919050565b60006105b482610a66565b90508073ffffffffffffffffffffffffffffffffffffffff168373ffffffffffffffffffffffffffffffffffffffff1603610624576040517f08c379a000000000000000000000000000000000000000000000000000000000815260040161061b90613347565b60405180910390fd5b8073ffffffffffffffffffffffffffffffffffffffff166106436119f3565b73ffffffffffffffffffffffffffffffffffffffff16148061067257506106718161066c6119f3565b61144a565b5b6106b1576040517f08c379a00000000000000000000000000000000000000000000000000000000081526004016106a8906133d9565b60405180910390fd5b6106bb83836119fb565b505050565b6000606080606080600080600760009054906101000a900473ffffffffffffffffffffffffffffffffffffffff1673ffffffffffffffffffffffffffffffffffffffff166383403120896040518263ffffffff1660e01b81526004016107269190612e40565b600060405180830381865afa158015610743573d6000803e3d6000fd5b505050506040513d6000823e3d601f19601f8201168201806040525081019061076c9190613493565b9650965096509650965096509650919395979092949650565b6107966107906119f3565b82611ab4565b6107d5576040517f08c379a00000000000000000000000000000000000000000000000000000000081526004016107cc90613617565b60405180910390fd5b6107e0838383611b49565b505050565b600073ffffffffffffffffffffffffffffffffffffffff168273ffffffffffffffffffffffffffffffffffffffff160361081d573391505b6000600854905060006040518061010001604052808381526020018981526020018881526020018781526020018681526020018573ffffffffffffffffffffffffffffffffffffffff1681526020014281526020018481525090506009819080600181540180825580915050600190039060005260206000209060080201600090919091909150600082015181600001556020820151816001015560408201518160020190816108cd91906137e3565b5060608201518160030190816108e391906137e3565b5060808201518160040190816108f991906137e3565b5060a08201518160050160006101000a81548173ffffffffffffffffffffffffffffffffffffffff021916908373ffffffffffffffffffffffffffffffffffffffff16021790555060c0820151816006015560e08201518160070155505061096333600854611e42565b61096f6008548661205f565b60086000815480929190610982906138e4565b91905055505050505050505050565b6109ac838383604051806020016040528060008152506112d6565b505050565b600080600090505b600980549050811015610a5b578273ffffffffffffffffffffffffffffffffffffffff16600982815481106109f1576109f061392c565b5b906000526020600020906008020160050160009054906101000a900473ffffffffffffffffffffffffffffffffffffffff1673ffffffffffffffffffffffffffffffffffffffff1603610a48576001915050610a61565b8080610a53906138e4565b9150506109b9565b50600090505b919050565b600080610a7283612103565b9050600073ffffffffffffffffffffffffffffffffffffffff168173ffffffffffffffffffffffffffffffffffffffff1603610ae3576040517f08c379a0000000000000000000000000000000000000000000000000000000008152600401610ada906139a7565b60405180910390fd5b80915050919050565b60008073ffffffffffffffffffffffffffffffffffffffff168273ffffffffffffffffffffffffffffffffffffffff1603610b5c576040517f08c379a0000000000000000000000000000000000000000000000000000000008152600401610b5390613a39565b60405180910390fd5b600360008373ffffffffffffffffffffffffffffffffffffffff1673ffffffffffffffffffffffffffffffffffffffff168152602001908152602001600020549050919050565b606060018054610bb2906132a4565b80601f0160208091040260200160405190810160405280929190818152602001828054610bde906132a4565b8015610c2b5780601f10610c0057610100808354040283529160200191610c2b565b820191906000526020600020905b815481529060010190602001808311610c0e57829003601f168201915b5050505050905090565b600080600090505b600854811015610cf4578360098281548110610c5c57610c5b61392c565b5b90600052602060002090600802016000015403610ce1578260098281548110610c8857610c8761392c565b5b906000526020600020906008020160050160006101000a81548173ffffffffffffffffffffffffffffffffffffffff021916908373ffffffffffffffffffffffffffffffffffffffff1602179055506001915050610cfa565b8080610cec906138e4565b915050610c3d565b50600090505b92915050565b610d12610d0b6119f3565b8383612140565b5050565b60606000805b600980549050811015610dc4578373ffffffffffffffffffffffffffffffffffffffff1660098281548110610d5457610d5361392c565b5b906000526020600020906008020160050160009054906101000a900473ffffffffffffffffffffffffffffffffffffffff1673ffffffffffffffffffffffffffffffffffffffff1603610db157600182610dae9190613a59565b91505b8080610dbc906138e4565b915050610d1c565b5060008167ffffffffffffffff811115610de157610de0612c07565b5b604051908082528060200260200182016040528015610e1a57816020015b610e07612809565b815260200190600190039081610dff5790505b5090506000805b60098054905081101561114f578573ffffffffffffffffffffffffffffffffffffffff1660098281548110610e5957610e5861392c565b5b906000526020600020906008020160050160009054906101000a900473ffffffffffffffffffffffffffffffffffffffff1673ffffffffffffffffffffffffffffffffffffffff160361113c57600060098281548110610ebc57610ebb61392c565b5b9060005260206000209060080201905080604051806101000160405290816000820154815260200160018201548152602001600282018054610efd906132a4565b80601f0160208091040260200160405190810160405280929190818152602001828054610f29906132a4565b8015610f765780601f10610f4b57610100808354040283529160200191610f76565b820191906000526020600020905b815481529060010190602001808311610f5957829003601f168201915b50505050508152602001600382018054610f8f906132a4565b80601f0160208091040260200160405190810160405280929190818152602001828054610fbb906132a4565b80156110085780601f10610fdd57610100808354040283529160200191611008565b820191906000526020600020905b815481529060010190602001808311610feb57829003601f168201915b50505050508152602001600482018054611021906132a4565b80601f016020809104026020016040519081016040528092919081815260200182805461104d906132a4565b801561109a5780601f1061106f5761010080835404028352916020019161109a565b820191906000526020600020905b81548152906001019060200180831161107d57829003601f168201915b505050505081526020016005820160009054906101000a900473ffffffffffffffffffffffffffffffffffffffff1673ffffffffffffffffffffffffffffffffffffffff1673ffffffffffffffffffffffffffffffffffffffff168152602001600682015481526020016007820154815250508484815181106111205761111f61392c565b5b60200260200101819052506001836111389190613a59565b9250505b8080611147906138e4565b915050610e21565b50819350505050919050565b6000600760009054906101000a900473ffffffffffffffffffffffffffffffffffffffff1673ffffffffffffffffffffffffffffffffffffffff1663603acf10600760009054906101000a900473ffffffffffffffffffffffffffffffffffffffff1673ffffffffffffffffffffffffffffffffffffffff1663b8acdb016040518163ffffffff1660e01b8152600401602060405180830381865afa158015611208573d6000803e3d6000fd5b505050506040513d601f19601f8201168201806040525081019061122c9190613a8d565b6040518263ffffffff1660e01b81526004016112489190612e40565b602060405180830381865afa158015611265573d6000803e3d6000fd5b505050506040513d601f19601f820116820180604052508101906112899190613aba565b90508073ffffffffffffffffffffffffffffffffffffffff166108fc839081150290604051600060405180830381858888f193505050501580156112d1573d6000803e3d6000fd5b505050565b6112e76112e16119f3565b83611ab4565b611326576040517f08c379a000000000000000000000000000000000000000000000000000000000815260040161131d90613617565b60405180910390fd5b611332848484846122ac565b50505050565b6060611343826119a8565b6000600660008481526020019081526020016000208054611363906132a4565b80601f016020809104026020016040519081016040528092919081815260200182805461138f906132a4565b80156113dc5780601f106113b1576101008083540402835291602001916113dc565b820191906000526020600020905b8154815290600101906020018083116113bf57829003601f168201915b5050505050905060006113ed612308565b90506000815103611402578192505050611445565b60008251111561143757808260405160200161141f929190613b23565b60405160208183030381529060405292505050611445565b6114408461231f565b925050505b919050565b6000600560008473ffffffffffffffffffffffffffffffffffffffff1673ffffffffffffffffffffffffffffffffffffffff16815260200190815260200160002060008373ffffffffffffffffffffffffffffffffffffffff1673ffffffffffffffffffffffffffffffffffffffff16815260200190815260200160002060009054906101000a900460ff16905092915050565b6000600760009054906101000a900473ffffffffffffffffffffffffffffffffffffffff1673ffffffffffffffffffffffffffffffffffffffff1663b8acdb016040518163ffffffff1660e01b8152600401602060405180830381865afa15801561154d573d6000803e3d6000fd5b505050506040513d601f19601f820116820180604052508101906115719190613a8d565b905090565b6060600060098054905067ffffffffffffffff81111561159957611598612c07565b5b6040519080825280602002602001820160405280156115d257816020015b6115bf612809565b8152602001906001900390816115b75790505b5090506000805b6009805490508110156118bb5784600982815481106115fb576115fa61392c565b5b906000526020600020906008020160010154036118a8576000600982815481106116285761162761392c565b5b9060005260206000209060080201905080604051806101000160405290816000820154815260200160018201548152602001600282018054611669906132a4565b80601f0160208091040260200160405190810160405280929190818152602001828054611695906132a4565b80156116e25780601f106116b7576101008083540402835291602001916116e2565b820191906000526020600020905b8154815290600101906020018083116116c557829003601f168201915b505050505081526020016003820180546116fb906132a4565b80601f0160208091040260200160405190810160405280929190818152602001828054611727906132a4565b80156117745780601f1061174957610100808354040283529160200191611774565b820191906000526020600020905b81548152906001019060200180831161175757829003601f168201915b5050505050815260200160048201805461178d906132a4565b80601f01602080910402602001604051908101604052809291908181526020018280546117b9906132a4565b80156118065780601f106117db57610100808354040283529160200191611806565b820191906000526020600020905b8154815290600101906020018083116117e957829003601f168201915b505050505081526020016005820160009054906101000a900473ffffffffffffffffffffffffffffffffffffffff1673ffffffffffffffffffffffffffffffffffffffff1673ffffffffffffffffffffffffffffffffffffffff1681526020016006820154815260200160078201548152505084848151811061188c5761188b61392c565b5b60200260200101819052506001836118a49190613a59565b9250505b80806118b3906138e4565b9150506115d9565b508192505050919050565b60007f80ac58cd000000000000000000000000000000000000000000000000000000007bffffffffffffffffffffffffffffffffffffffffffffffffffffffff1916827bffffffffffffffffffffffffffffffffffffffffffffffffffffffff1916148061199157507f5b5e139f000000000000000000000000000000000000000000000000000000007bffffffffffffffffffffffffffffffffffffffffffffffffffffffff1916827bffffffffffffffffffffffffffffffffffffffffffffffffffffffff1916145b806119a157506119a082612387565b5b9050919050565b6119b1816123f1565b6119f0576040517f08c379a00000000000000000000000000000000000000000000000000000000081526004016119e7906139a7565b60405180910390fd5b50565b600033905090565b816004600083815260200190815260200160002060006101000a81548173ffffffffffffffffffffffffffffffffffffffff021916908373ffffffffffffffffffffffffffffffffffffffff160217905550808273ffffffffffffffffffffffffffffffffffffffff16611a6e83610a66565b73ffffffffffffffffffffffffffffffffffffffff167f8c5be1e5ebec7d5bd14f71427d1e84f3dd0314c0f7b2291e5b200ac8c7c3b92560405160405180910390a45050565b600080611ac083610a66565b90508073ffffffffffffffffffffffffffffffffffffffff168473ffffffffffffffffffffffffffffffffffffffff161480611b025750611b01818561144a565b5b80611b4057508373ffffffffffffffffffffffffffffffffffffffff16611b2884610563565b73ffffffffffffffffffffffffffffffffffffffff16145b91505092915050565b8273ffffffffffffffffffffffffffffffffffffffff16611b6982610a66565b73ffffffffffffffffffffffffffffffffffffffff1614611bbf576040517f08c379a0000000000000000000000000000000000000000000000000000000008152600401611bb690613bb9565b60405180910390fd5b600073ffffffffffffffffffffffffffffffffffffffff168273ffffffffffffffffffffffffffffffffffffffff1603611c2e576040517f08c379a0000000000000000000000000000000000000000000000000000000008152600401611c2590613c4b565b60405180910390fd5b611c3b8383836001612432565b8273ffffffffffffffffffffffffffffffffffffffff16611c5b82610a66565b73ffffffffffffffffffffffffffffffffffffffff1614611cb1576040517f08c379a0000000000000000000000000000000000000000000000000000000008152600401611ca890613bb9565b60405180910390fd5b6004600082815260200190815260200160002060006101000a81549073ffffffffffffffffffffffffffffffffffffffff02191690556001600360008573ffffffffffffffffffffffffffffffffffffffff1673ffffffffffffffffffffffffffffffffffffffff168152602001908152602001600020600082825403925050819055506001600360008473ffffffffffffffffffffffffffffffffffffffff1673ffffffffffffffffffffffffffffffffffffffff16815260200190815260200160002060008282540192505081905550816002600083815260200190815260200160002060006101000a81548173ffffffffffffffffffffffffffffffffffffffff021916908373ffffffffffffffffffffffffffffffffffffffff160217905550808273ffffffffffffffffffffffffffffffffffffffff168473ffffffffffffffffffffffffffffffffffffffff167fddf252ad1be2c89b69c2b068fc378daa952ba7f163c4a11628f55a4df523b3ef60405160405180910390a4611e3d8383836001612438565b505050565b600073ffffffffffffffffffffffffffffffffffffffff168273ffffffffffffffffffffffffffffffffffffffff1603611eb1576040517f08c379a0000000000000000000000000000000000000000000000000000000008152600401611ea890613cb7565b60405180910390fd5b611eba816123f1565b15611efa576040517f08c379a0000000000000000000000000000000000000000000000000000000008152600401611ef190613d23565b60405180910390fd5b611f08600083836001612432565b611f11816123f1565b15611f51576040517f08c379a0000000000000000000000000000000000000000000000000000000008152600401611f4890613d23565b60405180910390fd5b6001600360008473ffffffffffffffffffffffffffffffffffffffff1673ffffffffffffffffffffffffffffffffffffffff16815260200190815260200160002060008282540192505081905550816002600083815260200190815260200160002060006101000a81548173ffffffffffffffffffffffffffffffffffffffff021916908373ffffffffffffffffffffffffffffffffffffffff160217905550808273ffffffffffffffffffffffffffffffffffffffff16600073ffffffffffffffffffffffffffffffffffffffff167fddf252ad1be2c89b69c2b068fc378daa952ba7f163c4a11628f55a4df523b3ef60405160405180910390a461205b600083836001612438565b5050565b612068826123f1565b6120a7576040517f08c379a000000000000000000000000000000000000000000000000000000000815260040161209e90613db5565b60405180910390fd5b806006600084815260200190815260200160002090816120c791906137e3565b507ff8e1a15aba9398e019f0b49df1a4fde98ee17ae345cb5f6b5e2c27f5033e8ce7826040516120f79190612e40565b60405180910390a15050565b60006002600083815260200190815260200160002060009054906101000a900473ffffffffffffffffffffffffffffffffffffffff169050919050565b8173ffffffffffffffffffffffffffffffffffffffff168373ffffffffffffffffffffffffffffffffffffffff16036121ae576040517f08c379a00000000000000000000000000000000000000000000000000000000081526004016121a590613e21565b60405180910390fd5b80600560008573ffffffffffffffffffffffffffffffffffffffff1673ffffffffffffffffffffffffffffffffffffffff16815260200190815260200160002060008473ffffffffffffffffffffffffffffffffffffffff1673ffffffffffffffffffffffffffffffffffffffff16815260200190815260200160002060006101000a81548160ff0219169083151502179055508173ffffffffffffffffffffffffffffffffffffffff168373ffffffffffffffffffffffffffffffffffffffff167f17307eab39ab6107e8899845ad3d59bd9653f200f220920489ca2b5937696c318360405161229f9190612918565b60405180910390a3505050565b6122b7848484611b49565b6122c38484848461243e565b612302576040517f08c379a00000000000000000000000000000000000000000000000000000000081526004016122f990613eb3565b60405180910390fd5b50505050565b606060405180602001604052806000815250905090565b606061232a826119a8565b6000612334612308565b90506000815111612354576040518060200160405280600081525061237f565b8061235e846125c5565b60405160200161236f929190613b23565b6040516020818303038152906040525b915050919050565b60007f01ffc9a7000000000000000000000000000000000000000000000000000000007bffffffffffffffffffffffffffffffffffffffffffffffffffffffff1916827bffffffffffffffffffffffffffffffffffffffffffffffffffffffff1916149050919050565b60008073ffffffffffffffffffffffffffffffffffffffff1661241383612103565b73ffffffffffffffffffffffffffffffffffffffff1614159050919050565b50505050565b50505050565b600061245f8473ffffffffffffffffffffffffffffffffffffffff16612693565b156125b8578373ffffffffffffffffffffffffffffffffffffffff1663150b7a026124886119f3565b8786866040518563ffffffff1660e01b81526004016124aa9493929190613f28565b6020604051808303816000875af19250505080156124e657506040513d601f19601f820116820180604052508101906124e39190613f89565b60015b612568573d8060008114612516576040519150601f19603f3d011682016040523d82523d6000602084013e61251b565b606091505b506000815103612560576040517f08c379a000000000000000000000000000000000000000000000000000000000815260040161255790613eb3565b60405180910390fd5b805181602001fd5b63150b7a0260e01b7bffffffffffffffffffffffffffffffffffffffffffffffffffffffff1916817bffffffffffffffffffffffffffffffffffffffffffffffffffffffff1916149150506125bd565b600190505b949350505050565b6060600060016125d4846126b6565b01905060008167ffffffffffffffff8111156125f3576125f2612c07565b5b6040519080825280601f01601f1916602001820160405280156126255781602001600182028036833780820191505090505b509050600082602001820190505b600115612688578080600190039150507f3031323334353637383961626364656600000000000000000000000000000000600a86061a8153600a858161267c5761267b613fb6565b5b04945060008503612633575b819350505050919050565b6000808273ffffffffffffffffffffffffffffffffffffffff163b119050919050565b600080600090507a184f03e93ff9f4daa797ed6e38ed64bf6a1f0100000000000000008310612714577a184f03e93ff9f4daa797ed6e38ed64bf6a1f010000000000000000838161270a57612709613fb6565b5b0492506040810190505b6d04ee2d6d415b85acef81000000008310612751576d04ee2d6d415b85acef8100000000838161274757612746613fb6565b5b0492506020810190505b662386f26fc10000831061278057662386f26fc10000838161277657612775613fb6565b5b0492506010810190505b6305f5e10083106127a9576305f5e100838161279f5761279e613fb6565b5b0492506008810190505b61271083106127ce5761271083816127c4576127c3613fb6565b5b0492506004810190505b606483106127f157606483816127e7576127e6613fb6565b5b0492506002810190505b600a8310612800576001810190505b80915050919050565b6040518061010001604052806000815260200160008152602001606081526020016060815260200160608152602001600073ffffffffffffffffffffffffffffffffffffffff16815260200160008152602001600081525090565b6000604051905090565b600080fd5b600080fd5b60007fffffffff0000000000000000000000000000000000000000000000000000000082169050919050565b6128ad81612878565b81146128b857600080fd5b50565b6000813590506128ca816128a4565b92915050565b6000602082840312156128e6576128e561286e565b5b60006128f4848285016128bb565b91505092915050565b60008115159050919050565b612912816128fd565b82525050565b600060208201905061292d6000830184612909565b92915050565b600081519050919050565b600082825260208201905092915050565b60005b8381101561296d578082015181840152602081019050612952565b60008484015250505050565b6000601f19601f8301169050919050565b600061299582612933565b61299f818561293e565b93506129af81856020860161294f565b6129b881612979565b840191505092915050565b600060208201905081810360008301526129dd818461298a565b905092915050565b6000819050919050565b6129f8816129e5565b8114612a0357600080fd5b50565b600081359050612a15816129ef565b92915050565b600060208284031215612a3157612a3061286e565b5b6000612a3f84828501612a06565b91505092915050565b600073ffffffffffffffffffffffffffffffffffffffff82169050919050565b6000612a7382612a48565b9050919050565b612a8381612a68565b82525050565b6000602082019050612a9e6000830184612a7a565b92915050565b612aad81612a68565b8114612ab857600080fd5b50565b600081359050612aca81612aa4565b92915050565b60008060408385031215612ae757612ae661286e565b5b6000612af585828601612abb565b9250506020612b0685828601612a06565b9150509250929050565b612b19816129e5565b82525050565b600060e082019050612b34600083018a612b10565b8181036020830152612b46818961298a565b90508181036040830152612b5a818861298a565b90508181036060830152612b6e818761298a565b90508181036080830152612b82818661298a565b9050612b9160a0830185612a7a565b612b9e60c0830184612b10565b98975050505050505050565b600080600060608486031215612bc357612bc261286e565b5b6000612bd186828701612abb565b9350506020612be286828701612abb565b9250506040612bf386828701612a06565b9150509250925092565b600080fd5b600080fd5b7f4e487b7100000000000000000000000000000000000000000000000000000000600052604160045260246000fd5b612c3f82612979565b810181811067ffffffffffffffff82111715612c5e57612c5d612c07565b5b80604052505050565b6000612c71612864565b9050612c7d8282612c36565b919050565b600067ffffffffffffffff821115612c9d57612c9c612c07565b5b612ca682612979565b9050602081019050919050565b82818337600083830152505050565b6000612cd5612cd084612c82565b612c67565b905082815260208101848484011115612cf157612cf0612c02565b5b612cfc848285612cb3565b509392505050565b600082601f830112612d1957612d18612bfd565b5b8135612d29848260208601612cc2565b91505092915050565b60008060008060008060c08789031215612d4f57612d4e61286e565b5b6000612d5d89828a01612a06565b965050602087013567ffffffffffffffff811115612d7e57612d7d612873565b5b612d8a89828a01612d04565b955050604087013567ffffffffffffffff811115612dab57612daa612873565b5b612db789828a01612d04565b945050606087013567ffffffffffffffff811115612dd857612dd7612873565b5b612de489828a01612d04565b9350506080612df589828a01612abb565b92505060a0612e0689828a01612a06565b9150509295509295509295565b600060208284031215612e2957612e2861286e565b5b6000612e3784828501612abb565b91505092915050565b6000602082019050612e556000830184612b10565b92915050565b60008060408385031215612e7257612e7161286e565b5b6000612e8085828601612a06565b9250506020612e9185828601612abb565b9150509250929050565b612ea4816128fd565b8114612eaf57600080fd5b50565b600081359050612ec181612e9b565b92915050565b60008060408385031215612ede57612edd61286e565b5b6000612eec85828601612abb565b9250506020612efd85828601612eb2565b9150509250929050565b600081519050919050565b600082825260208201905092915050565b6000819050602082019050919050565b612f3c816129e5565b82525050565b600082825260208201905092915050565b6000612f5e82612933565b612f688185612f42565b9350612f7881856020860161294f565b612f8181612979565b840191505092915050565b612f9581612a68565b82525050565b600061010083016000830151612fb46000860182612f33565b506020830151612fc76020860182612f33565b5060408301518482036040860152612fdf8282612f53565b91505060608301518482036060860152612ff98282612f53565b915050608083015184820360808601526130138282612f53565b91505060a083015161302860a0860182612f8c565b5060c083015161303b60c0860182612f33565b5060e083015161304e60e0860182612f33565b508091505092915050565b60006130658383612f9b565b905092915050565b6000602082019050919050565b600061308582612f07565b61308f8185612f12565b9350836020820285016130a185612f23565b8060005b858110156130dd57848403895281516130be8582613059565b94506130c98361306d565b925060208a019950506001810190506130a5565b50829750879550505050505092915050565b60006020820190508181036000830152613109818461307a565b905092915050565b600067ffffffffffffffff82111561312c5761312b612c07565b5b61313582612979565b9050602081019050919050565b600061315561315084613111565b612c67565b90508281526020810184848401111561317157613170612c02565b5b61317c848285612cb3565b509392505050565b600082601f83011261319957613198612bfd565b5b81356131a9848260208601613142565b91505092915050565b600080600080608085870312156131cc576131cb61286e565b5b60006131da87828801612abb565b94505060206131eb87828801612abb565b93505060406131fc87828801612a06565b925050606085013567ffffffffffffffff81111561321d5761321c612873565b5b61322987828801613184565b91505092959194509250565b6000806040838503121561324c5761324b61286e565b5b600061325a85828601612abb565b925050602061326b85828601612abb565b9150509250929050565b7f4e487b7100000000000000000000000000000000000000000000000000000000600052602260045260246000fd5b600060028204905060018216806132bc57607f821691505b6020821081036132cf576132ce613275565b5b50919050565b7f4552433732313a20617070726f76616c20746f2063757272656e74206f776e6560008201527f7200000000000000000000000000000000000000000000000000000000000000602082015250565b600061333160218361293e565b915061333c826132d5565b604082019050919050565b6000602082019050818103600083015261336081613324565b9050919050565b7f4552433732313a20617070726f76652063616c6c6572206973206e6f7420746f60008201527f6b656e206f776e6572206f7220617070726f76656420666f7220616c6c000000602082015250565b60006133c3603d8361293e565b91506133ce82613367565b604082019050919050565b600060208201905081810360008301526133f2816133b6565b9050919050565b600081519050613408816129ef565b92915050565b600061342161341c84612c82565b612c67565b90508281526020810184848401111561343d5761343c612c02565b5b61344884828561294f565b509392505050565b600082601f83011261346557613464612bfd565b5b815161347584826020860161340e565b91505092915050565b60008151905061348d81612aa4565b92915050565b600080600080600080600060e0888a0312156134b2576134b161286e565b5b60006134c08a828b016133f9565b975050602088015167ffffffffffffffff8111156134e1576134e0612873565b5b6134ed8a828b01613450565b965050604088015167ffffffffffffffff81111561350e5761350d612873565b5b61351a8a828b01613450565b955050606088015167ffffffffffffffff81111561353b5761353a612873565b5b6135478a828b01613450565b945050608088015167ffffffffffffffff81111561356857613567612873565b5b6135748a828b01613450565b93505060a06135858a828b0161347e565b92505060c06135968a828b016133f9565b91505092959891949750929550565b7f4552433732313a2063616c6c6572206973206e6f7420746f6b656e206f776e6560008201527f72206f7220617070726f76656400000000000000000000000000000000000000602082015250565b6000613601602d8361293e565b915061360c826135a5565b604082019050919050565b60006020820190508181036000830152613630816135f4565b9050919050565b60008190508160005260206000209050919050565b60006020601f8301049050919050565b600082821b905092915050565b6000600883026136997fffffffffffffffffffffffffffffffffffffffffffffffffffffffffffffffff8261365c565b6136a3868361365c565b95508019841693508086168417925050509392505050565b6000819050919050565b60006136e06136db6136d6846129e5565b6136bb565b6129e5565b9050919050565b6000819050919050565b6136fa836136c5565b61370e613706826136e7565b848454613669565b825550505050565b600090565b613723613716565b61372e8184846136f1565b505050565b5b818110156137525761374760008261371b565b600181019050613734565b5050565b601f8211156137975761376881613637565b6137718461364c565b81016020851015613780578190505b61379461378c8561364c565b830182613733565b50505b505050565b600082821c905092915050565b60006137ba6000198460080261379c565b1980831691505092915050565b60006137d383836137a9565b9150826002028217905092915050565b6137ec82612933565b67ffffffffffffffff81111561380557613804612c07565b5b61380f82546132a4565b61381a828285613756565b600060209050601f83116001811461384d576000841561383b578287015190505b61384585826137c7565b8655506138ad565b601f19841661385b86613637565b60005b828110156138835784890151825560018201915060208501945060208101905061385e565b868310156138a0578489015161389c601f8916826137a9565b8355505b6001600288020188555050505b505050505050565b7f4e487b7100000000000000000000000000000000000000000000000000000000600052601160045260246000fd5b60006138ef826129e5565b91507fffffffffffffffffffffffffffffffffffffffffffffffffffffffffffffffff8203613921576139206138b5565b5b600182019050919050565b7f4e487b7100000000000000000000000000000000000000000000000000000000600052603260045260246000fd5b7f4552433732313a20696e76616c696420746f6b656e2049440000000000000000600082015250565b600061399160188361293e565b915061399c8261395b565b602082019050919050565b600060208201905081810360008301526139c081613984565b9050919050565b7f4552433732313a2061646472657373207a65726f206973206e6f74206120766160008201527f6c6964206f776e65720000000000000000000000000000000000000000000000602082015250565b6000613a2360298361293e565b9150613a2e826139c7565b604082019050919050565b60006020820190508181036000830152613a5281613a16565b9050919050565b6000613a64826129e5565b9150613a6f836129e5565b9250828201905080821115613a8757613a866138b5565b5b92915050565b600060208284031215613aa357613aa261286e565b5b6000613ab1848285016133f9565b91505092915050565b600060208284031215613ad057613acf61286e565b5b6000613ade8482850161347e565b91505092915050565b600081905092915050565b6000613afd82612933565b613b078185613ae7565b9350613b1781856020860161294f565b80840191505092915050565b6000613b2f8285613af2565b9150613b3b8284613af2565b91508190509392505050565b7f4552433732313a207472616e736665722066726f6d20696e636f72726563742060008201527f6f776e6572000000000000000000000000000000000000000000000000000000602082015250565b6000613ba360258361293e565b9150613bae82613b47565b604082019050919050565b60006020820190508181036000830152613bd281613b96565b9050919050565b7f4552433732313a207472616e7366657220746f20746865207a65726f2061646460008201527f7265737300000000000000000000000000000000000000000000000000000000602082015250565b6000613c3560248361293e565b9150613c4082613bd9565b604082019050919050565b60006020820190508181036000830152613c6481613c28565b9050919050565b7f4552433732313a206d696e7420746f20746865207a65726f2061646472657373600082015250565b6000613ca160208361293e565b9150613cac82613c6b565b602082019050919050565b60006020820190508181036000830152613cd081613c94565b9050919050565b7f4552433732313a20746f6b656e20616c7265616479206d696e74656400000000600082015250565b6000613d0d601c8361293e565b9150613d1882613cd7565b602082019050919050565b60006020820190508181036000830152613d3c81613d00565b9050919050565b7f45524337323155524953746f726167653a2055524920736574206f66206e6f6e60008201527f6578697374656e7420746f6b656e000000000000000000000000000000000000602082015250565b6000613d9f602e8361293e565b9150613daa82613d43565b604082019050919050565b60006020820190508181036000830152613dce81613d92565b9050919050565b7f4552433732313a20617070726f766520746f2063616c6c657200000000000000600082015250565b6000613e0b60198361293e565b9150613e1682613dd5565b602082019050919050565b60006020820190508181036000830152613e3a81613dfe565b9050919050565b7f4552433732313a207472616e7366657220746f206e6f6e20455243373231526560008201527f63656976657220696d706c656d656e7465720000000000000000000000000000602082015250565b6000613e9d60328361293e565b9150613ea882613e41565b604082019050919050565b60006020820190508181036000830152613ecc81613e90565b9050919050565b600081519050919050565b600082825260208201905092915050565b6000613efa82613ed3565b613f048185613ede565b9350613f1481856020860161294f565b613f1d81612979565b840191505092915050565b6000608082019050613f3d6000830187612a7a565b613f4a6020830186612a7a565b613f576040830185612b10565b8181036060830152613f698184613eef565b905095945050505050565b600081519050613f83816128a4565b92915050565b600060208284031215613f9f57613f9e61286e565b5b6000613fad84828501613f74565b91505092915050565b7f4e487b7100000000000000000000000000000000000000000000000000000000600052601260045260246000fdfea26469706673582212209e65dc0f911385457b138b097f0e164a6f44cb4561982714a228025c72e5887764736f6c63430008120033",
  "linkReferences": {},
  "deployedLinkReferences": {}
}