{
  "_format": "hh-sol-artifact-1",
  "contractName": "GymStore",
  "sourceName": "contracts/GymStore.sol",
  "abi": [
    {
      "inputs": [],
      "stateMutability": "nonpayable",
      "type": "constructor"
    },
    {
      "anonymous": false,
      "inputs": [
        {
          "indexed": true,
          "internalType": "address",
          "name": "owner",
          "type": "address"
        },
        {
          "indexed": true,
          "internalType": "address",
          "name": "approved",
          "type": "address"
        },
        {
          "indexed": true,
          "internalType": "uint256",
          "name": "tokenId",
          "type": "uint256"
        }
      ],
      "name": "Approval",
      "type": "event"
    },
    {
      "anonymous": false,
      "inputs": [
        {
          "indexed": true,
          "internalType": "address",
          "name": "owner",
          "type": "address"
        },
        {
          "indexed": true,
          "internalType": "address",
          "name": "operator",
          "type": "address"
        },
        {
          "indexed": false,
          "internalType": "bool",
          "name": "approved",
          "type": "bool"
        }
      ],
      "name": "ApprovalForAll",
      "type": "event"
    },
    {
      "anonymous": false,
      "inputs": [
        {
          "indexed": false,
          "internalType": "uint256",
          "name": "_fromTokenId",
          "type": "uint256"
        },
        {
          "indexed": false,
          "internalType": "uint256",
          "name": "_toTokenId",
          "type": "uint256"
        }
      ],
      "name": "BatchMetadataUpdate",
      "type": "event"
    },
    {
      "anonymous": false,
      "inputs": [
        {
          "indexed": false,
          "internalType": "uint256",
          "name": "_tokenId",
          "type": "uint256"
        }
      ],
      "name": "MetadataUpdate",
      "type": "event"
    },
    {
      "anonymous": false,
      "inputs": [
        {
          "indexed": true,
          "internalType": "address",
          "name": "from",
          "type": "address"
        },
        {
          "indexed": true,
          "internalType": "address",
          "name": "to",
          "type": "address"
        },
        {
          "indexed": true,
          "internalType": "uint256",
          "name": "tokenId",
          "type": "uint256"
        }
      ],
      "name": "Transfer",
      "type": "event"
    },
    {
      "inputs": [
        {
          "internalType": "address",
          "name": "to",
          "type": "address"
        },
        {
          "internalType": "uint256",
          "name": "tokenId",
          "type": "uint256"
        }
      ],
      "name": "approve",
      "outputs": [],
      "stateMutability": "nonpayable",
      "type": "function"
    },
    {
      "inputs": [
        {
          "internalType": "address",
          "name": "owner",
          "type": "address"
        }
      ],
      "name": "balanceOf",
      "outputs": [
        {
          "internalType": "uint256",
          "name": "",
          "type": "uint256"
        }
      ],
      "stateMutability": "view",
      "type": "function"
    },
    {
      "inputs": [
        {
          "internalType": "string",
          "name": "name",
          "type": "string"
        },
        {
          "internalType": "string",
          "name": "image",
          "type": "string"
        },
        {
          "internalType": "string",
          "name": "storeAddr",
          "type": "string"
        },
        {
          "internalType": "string",
          "name": "ipfsHash",
          "type": "string"
        }
      ],
      "name": "createStore",
      "outputs": [],
      "stateMutability": "nonpayable",
      "type": "function"
    },
    {
      "inputs": [
        {
          "internalType": "uint256",
          "name": "_storeId",
          "type": "uint256"
        }
      ],
      "name": "deleteStore",
      "outputs": [],
      "stateMutability": "nonpayable",
      "type": "function"
    },
    {
      "inputs": [],
      "name": "getAllStores",
      "outputs": [
        {
          "components": [
            {
              "internalType": "uint256",
              "name": "tokenId",
              "type": "uint256"
            },
            {
              "internalType": "string",
              "name": "name",
              "type": "string"
            },
            {
              "internalType": "string",
              "name": "image",
              "type": "string"
            },
            {
              "internalType": "string",
              "name": "storeAddr",
              "type": "string"
            },
            {
              "internalType": "string",
              "name": "ipfsHash",
              "type": "string"
            },
            {
              "internalType": "address",
              "name": "ownerAddress",
              "type": "address"
            },
            {
              "internalType": "uint256",
              "name": "createdAt",
              "type": "uint256"
            }
          ],
          "internalType": "struct GymStore.storeDetails[]",
          "name": "",
          "type": "tuple[]"
        }
      ],
      "stateMutability": "view",
      "type": "function"
    },
    {
      "inputs": [
        {
          "internalType": "uint256",
          "name": "tokenId",
          "type": "uint256"
        }
      ],
      "name": "getApproved",
      "outputs": [
        {
          "internalType": "address",
          "name": "",
          "type": "address"
        }
      ],
      "stateMutability": "view",
      "type": "function"
    },
    {
      "inputs": [
        {
          "internalType": "address",
          "name": "ownerAddress",
          "type": "address"
        }
      ],
      "name": "getOwnerStore",
      "outputs": [
        {
          "internalType": "uint256",
          "name": "",
          "type": "uint256"
        },
        {
          "internalType": "string",
          "name": "",
          "type": "string"
        },
        {
          "internalType": "string",
          "name": "",
          "type": "string"
        },
        {
          "internalType": "string",
          "name": "",
          "type": "string"
        },
        {
          "internalType": "string",
          "name": "",
          "type": "string"
        },
        {
          "internalType": "address",
          "name": "",
          "type": "address"
        },
        {
          "internalType": "uint256",
          "name": "",
          "type": "uint256"
        }
      ],
      "stateMutability": "view",
      "type": "function"
    },
    {
      "inputs": [
        {
          "internalType": "uint256",
          "name": "_storeId",
          "type": "uint256"
        }
      ],
      "name": "getStore",
      "outputs": [
        {
          "internalType": "uint256",
          "name": "",
          "type": "uint256"
        },
        {
          "internalType": "string",
          "name": "",
          "type": "string"
        },
        {
          "internalType": "string",
          "name": "",
          "type": "string"
        },
        {
          "internalType": "string",
          "name": "",
          "type": "string"
        },
        {
          "internalType": "string",
          "name": "",
          "type": "string"
        },
        {
          "internalType": "address",
          "name": "",
          "type": "address"
        },
        {
          "internalType": "uint256",
          "name": "",
          "type": "uint256"
        }
      ],
      "stateMutability": "view",
      "type": "function"
    },
    {
      "inputs": [
        {
          "internalType": "address",
          "name": "_address",
          "type": "address"
        }
      ],
      "name": "getStoreId",
      "outputs": [
        {
          "internalType": "uint256",
          "name": "",
          "type": "uint256"
        }
      ],
      "stateMutability": "view",
      "type": "function"
    },
    {
      "inputs": [],
      "name": "getStoreNumber",
      "outputs": [
        {
          "internalType": "uint256",
          "name": "",
          "type": "uint256"
        }
      ],
      "stateMutability": "view",
      "type": "function"
    },
    {
      "inputs": [
        {
          "internalType": "uint256",
          "name": "storeId",
          "type": "uint256"
        }
      ],
      "name": "getStoreOwner",
      "outputs": [
        {
          "internalType": "address",
          "name": "",
          "type": "address"
        }
      ],
      "stateMutability": "view",
      "type": "function"
    },
    {
      "inputs": [
        {
          "internalType": "address",
          "name": "owner",
          "type": "address"
        },
        {
          "internalType": "address",
          "name": "operator",
          "type": "address"
        }
      ],
      "name": "isApprovedForAll",
      "outputs": [
        {
          "internalType": "bool",
          "name": "",
          "type": "bool"
        }
      ],
      "stateMutability": "view",
      "type": "function"
    },
    {
      "inputs": [],
      "name": "name",
      "outputs": [
        {
          "internalType": "string",
          "name": "",
          "type": "string"
        }
      ],
      "stateMutability": "view",
      "type": "function"
    },
    {
      "inputs": [
        {
          "internalType": "uint256",
          "name": "tokenId",
          "type": "uint256"
        }
      ],
      "name": "ownerOf",
      "outputs": [
        {
          "internalType": "address",
          "name": "",
          "type": "address"
        }
      ],
      "stateMutability": "view",
      "type": "function"
    },
    {
      "inputs": [
        {
          "internalType": "address",
          "name": "_storeOWner",
          "type": "address"
        }
      ],
      "name": "ownsAStore",
      "outputs": [
        {
          "internalType": "bool",
          "name": "",
          "type": "bool"
        }
      ],
      "stateMutability": "view",
      "type": "function"
    },
    {
      "inputs": [
        {
          "internalType": "address",
          "name": "from",
          "type": "address"
        },
        {
          "internalType": "address",
          "name": "to",
          "type": "address"
        },
        {
          "internalType": "uint256",
          "name": "tokenId",
          "type": "uint256"
        }
      ],
      "name": "safeTransferFrom",
      "outputs": [],
      "stateMutability": "nonpayable",
      "type": "function"
    },
    {
      "inputs": [
        {
          "internalType": "address",
          "name": "from",
          "type": "address"
        },
        {
          "internalType": "address",
          "name": "to",
          "type": "address"
        },
        {
          "internalType": "uint256",
          "name": "tokenId",
          "type": "uint256"
        },
        {
          "internalType": "bytes",
          "name": "data",
          "type": "bytes"
        }
      ],
      "name": "safeTransferFrom",
      "outputs": [],
      "stateMutability": "nonpayable",
      "type": "function"
    },
    {
      "inputs": [
        {
          "internalType": "address",
          "name": "operator",
          "type": "address"
        },
        {
          "internalType": "bool",
          "name": "approved",
          "type": "bool"
        }
      ],
      "name": "setApprovalForAll",
      "outputs": [],
      "stateMutability": "nonpayable",
      "type": "function"
    },
    {
      "inputs": [
        {
          "internalType": "bytes4",
          "name": "interfaceId",
          "type": "bytes4"
        }
      ],
      "name": "supportsInterface",
      "outputs": [
        {
          "internalType": "bool",
          "name": "",
          "type": "bool"
        }
      ],
      "stateMutability": "view",
      "type": "function"
    },
    {
      "inputs": [],
      "name": "symbol",
      "outputs": [
        {
          "internalType": "string",
          "name": "",
          "type": "string"
        }
      ],
      "stateMutability": "view",
      "type": "function"
    },
    {
      "inputs": [
        {
          "internalType": "uint256",
          "name": "tokenId",
          "type": "uint256"
        }
      ],
      "name": "tokenURI",
      "outputs": [
        {
          "internalType": "string",
          "name": "",
          "type": "string"
        }
      ],
      "stateMutability": "view",
      "type": "function"
    },
    {
      "inputs": [
        {
          "internalType": "address",
          "name": "from",
          "type": "address"
        },
        {
          "internalType": "address",
          "name": "to",
          "type": "address"
        },
        {
          "internalType": "uint256",
          "name": "tokenId",
          "type": "uint256"
        }
      ],
      "name": "transferFrom",
      "outputs": [],
      "stateMutability": "nonpayable",
      "type": "function"
    }
  ],
  "bytecode": "0x608060405260016007553480156200001657600080fd5b506040518060400160405280600b81526020017f47796d53746f72654e46540000000000000000000000000000000000000000008152506040518060400160405280600381526020017f4753540000000000000000000000000000000000000000000000000000000000815250816000908162000094919062000329565b508060019081620000a6919062000329565b50505062000410565b600081519050919050565b7f4e487b7100000000000000000000000000000000000000000000000000000000600052604160045260246000fd5b7f4e487b7100000000000000000000000000000000000000000000000000000000600052602260045260246000fd5b600060028204905060018216806200013157607f821691505b602082108103620001475762000146620000e9565b5b50919050565b60008190508160005260206000209050919050565b60006020601f8301049050919050565b600082821b905092915050565b600060088302620001b17fffffffffffffffffffffffffffffffffffffffffffffffffffffffffffffffff8262000172565b620001bd868362000172565b95508019841693508086168417925050509392505050565b6000819050919050565b6000819050919050565b60006200020a62000204620001fe84620001d5565b620001df565b620001d5565b9050919050565b6000819050919050565b6200022683620001e9565b6200023e620002358262000211565b8484546200017f565b825550505050565b600090565b6200025562000246565b620002628184846200021b565b505050565b5b818110156200028a576200027e6000826200024b565b60018101905062000268565b5050565b601f821115620002d957620002a3816200014d565b620002ae8462000162565b81016020851015620002be578190505b620002d6620002cd8562000162565b83018262000267565b50505b505050565b600082821c905092915050565b6000620002fe60001984600802620002de565b1980831691505092915050565b6000620003198383620002eb565b9150826002028217905092915050565b6200033482620000af565b67ffffffffffffffff81111562000350576200034f620000ba565b5b6200035c825462000118565b620003698282856200028e565b600060209050601f831160018114620003a157600084156200038c578287015190505b6200039885826200030b565b86555062000408565b601f198416620003b1866200014d565b60005b82811015620003db57848901518255600182019150602085019450602081019050620003b4565b86831015620003fb5784890151620003f7601f891682620002eb565b8355505b6001600288020188555050505b505050505050565b613f0080620004206000396000f3fe608060405234801561001057600080fd5b50600436106101425760003560e01c80636baf8408116100b857806395d89b411161007c57806395d89b41146103cb578063a22cb465146103e9578063b88d4fde14610405578063b8acdb0114610421578063c87b56dd1461043f578063e985e9c51461046f57610142565b80636baf8408146102fb57806370a082311461032b5780637cc693251461035b57806383403120146103775780638b4bd105146103ad57610142565b806342842e0e1161010a57806342842e0e146101fd578063451bf35314610219578063508b019e1461024f5780635c96e7511461026b578063603acf101461029b5780636352211e146102cb57610142565b806301ffc9a71461014757806306fdde0314610177578063081812fc14610195578063095ea7b3146101c557806323b872dd146101e1575b600080fd5b610161600480360381019061015c9190612a12565b61049f565b60405161016e9190612a5a565b60405180910390f35b61017f610500565b60405161018c9190612b05565b60405180910390f35b6101af60048036038101906101aa9190612b5d565b610592565b6040516101bc9190612bcb565b60405180910390f35b6101df60048036038101906101da9190612c12565b6105d8565b005b6101fb60048036038101906101f69190612c52565b6106ef565b005b61021760048036038101906102129190612c52565b61074f565b005b610233600480360381019061022e9190612ca5565b61076f565b6040516102469796959493929190612ce1565b60405180910390f35b61026960048036038101906102649190612ea1565b610b40565b005b61028560048036038101906102809190612ca5565b610e24565b6040516102929190612f78565b60405180910390f35b6102b560048036038101906102b09190612b5d565b610e6d565b6040516102c29190612bcb565b60405180910390f35b6102e560048036038101906102e09190612b5d565b610eaa565b6040516102f29190612bcb565b60405180910390f35b61031560048036038101906103109190612ca5565b610f30565b6040516103229190612a5a565b60405180910390f35b61034560048036038101906103409190612ca5565b610f86565b6040516103529190612f78565b60405180910390f35b61037560048036038101906103709190612b5d565b61103d565b005b610391600480360381019061038c9190612b5d565b6110e1565b6040516103a49796959493929190612ce1565b60405180910390f35b6103b561146d565b6040516103c2919061316e565b60405180910390f35b6103d36117fa565b6040516103e09190612b05565b60405180910390f35b61040360048036038101906103fe91906131bc565b61188c565b005b61041f600480360381019061041a919061329d565b6118a2565b005b610429611904565b6040516104369190612f78565b60405180910390f35b61045960048036038101906104549190612b5d565b61190e565b6040516104669190612b05565b60405180910390f35b61048960048036038101906104849190613320565b611a20565b6040516104969190612a5a565b60405180910390f35b6000634906490660e01b7bffffffffffffffffffffffffffffffffffffffffffffffffffffffff1916827bffffffffffffffffffffffffffffffffffffffffffffffffffffffff191614806104f957506104f882611ab4565b5b9050919050565b60606000805461050f9061338f565b80601f016020809104026020016040519081016040528092919081815260200182805461053b9061338f565b80156105885780601f1061055d57610100808354040283529160200191610588565b820191906000526020600020905b81548152906001019060200180831161056b57829003601f168201915b5050505050905090565b600061059d82611b96565b6004600083815260200190815260200160002060009054906101000a900473ffffffffffffffffffffffffffffffffffffffff169050919050565b60006105e382610eaa565b90508073ffffffffffffffffffffffffffffffffffffffff168373ffffffffffffffffffffffffffffffffffffffff1603610653576040517f08c379a000000000000000000000000000000000000000000000000000000000815260040161064a90613432565b60405180910390fd5b8073ffffffffffffffffffffffffffffffffffffffff16610672611be1565b73ffffffffffffffffffffffffffffffffffffffff1614806106a157506106a08161069b611be1565b611a20565b5b6106e0576040517f08c379a00000000000000000000000000000000000000000000000000000000081526004016106d7906134c4565b60405180910390fd5b6106ea8383611be9565b505050565b6107006106fa611be1565b82611ca2565b61073f576040517f08c379a000000000000000000000000000000000000000000000000000000000815260040161073690613556565b60405180910390fd5b61074a838383611d37565b505050565b61076a838383604051806020016040528060008152506118a2565b505050565b60006060806060806000806000600b60008a73ffffffffffffffffffffffffffffffffffffffff1673ffffffffffffffffffffffffffffffffffffffff16815260200190815260200160002054905060006001826107cd91906135a5565b9050600881815481106107e3576107e26135d9565b5b90600052602060002090600702016000015460088281548110610809576108086135d9565b5b90600052602060002090600702016001016008838154811061082e5761082d6135d9565b5b906000526020600020906007020160020160088481548110610853576108526135d9565b5b906000526020600020906007020160030160088581548110610878576108776135d9565b5b90600052602060002090600702016004016008868154811061089d5761089c6135d9565b5b906000526020600020906007020160050160009054906101000a900473ffffffffffffffffffffffffffffffffffffffff16600887815481106108e3576108e26135d9565b5b9060005260206000209060070201600601548580546109019061338f565b80601f016020809104026020016040519081016040528092919081815260200182805461092d9061338f565b801561097a5780601f1061094f5761010080835404028352916020019161097a565b820191906000526020600020905b81548152906001019060200180831161095d57829003601f168201915b5050505050955084805461098d9061338f565b80601f01602080910402602001604051908101604052809291908181526020018280546109b99061338f565b8015610a065780601f106109db57610100808354040283529160200191610a06565b820191906000526020600020905b8154815290600101906020018083116109e957829003601f168201915b50505050509450838054610a199061338f565b80601f0160208091040260200160405190810160405280929190818152602001828054610a459061338f565b8015610a925780601f10610a6757610100808354040283529160200191610a92565b820191906000526020600020905b815481529060010190602001808311610a7557829003601f168201915b50505050509350828054610aa59061338f565b80601f0160208091040260200160405190810160405280929190818152602001828054610ad19061338f565b8015610b1e5780601f10610af357610100808354040283529160200191610b1e565b820191906000526020600020905b815481529060010190602001808311610b0157829003601f168201915b5050505050925098509850985098509850985098505050919395979092949650565b60001515600c60003373ffffffffffffffffffffffffffffffffffffffff1673ffffffffffffffffffffffffffffffffffffffff16815260200190815260200160002060009054906101000a900460ff16151514610bd3576040517f08c379a0000000000000000000000000000000000000000000000000000000008152600401610bca9061367a565b60405180910390fd5b6000600754905060006040518060e001604052808381526020018781526020018681526020018581526020018481526020013373ffffffffffffffffffffffffffffffffffffffff1681526020014281525090506008819080600181540180825580915050600190039060005260206000209060070201600090919091909150600082015181600001556020820151816001019081610c729190613846565b506040820151816002019081610c889190613846565b506060820151816003019081610c9e9190613846565b506080820151816004019081610cb49190613846565b5060a08201518160050160006101000a81548173ffffffffffffffffffffffffffffffffffffffff021916908373ffffffffffffffffffffffffffffffffffffffff16021790555060c082015181600601555050610d1433600754612030565b6001600c60003373ffffffffffffffffffffffffffffffffffffffff1673ffffffffffffffffffffffffffffffffffffffff16815260200190815260200160002060006101000a81548160ff021916908315150217905550600754600b60003373ffffffffffffffffffffffffffffffffffffffff1673ffffffffffffffffffffffffffffffffffffffff1681526020019081526020016000208190555033600a600084815260200190815260200160002060006101000a81548173ffffffffffffffffffffffffffffffffffffffff021916908373ffffffffffffffffffffffffffffffffffffffff16021790555060076000815480929190610e1790613918565b9190505550505050505050565b6000600b60008373ffffffffffffffffffffffffffffffffffffffff1673ffffffffffffffffffffffffffffffffffffffff168152602001908152602001600020549050919050565b6000600a600083815260200190815260200160002060009054906101000a900473ffffffffffffffffffffffffffffffffffffffff169050919050565b600080610eb68361224d565b9050600073ffffffffffffffffffffffffffffffffffffffff168173ffffffffffffffffffffffffffffffffffffffff1603610f27576040517f08c379a0000000000000000000000000000000000000000000000000000000008152600401610f1e906139ac565b60405180910390fd5b80915050919050565b6000600c60008373ffffffffffffffffffffffffffffffffffffffff1673ffffffffffffffffffffffffffffffffffffffff16815260200190815260200160002060009054906101000a900460ff169050919050565b60008073ffffffffffffffffffffffffffffffffffffffff168273ffffffffffffffffffffffffffffffffffffffff1603610ff6576040517f08c379a0000000000000000000000000000000000000000000000000000000008152600401610fed90613a3e565b60405180910390fd5b600360008373ffffffffffffffffffffffffffffffffffffffff1673ffffffffffffffffffffffffffffffffffffffff168152602001908152602001600020549050919050565b3373ffffffffffffffffffffffffffffffffffffffff16600a600083815260200190815260200160002060009054906101000a900473ffffffffffffffffffffffffffffffffffffffff1673ffffffffffffffffffffffffffffffffffffffff16146110a857600080fd5b600a600082815260200190815260200160002060006101000a81549073ffffffffffffffffffffffffffffffffffffffff021916905550565b600060608060608060008060006001896110fb91906135a5565b905060088181548110611111576111106135d9565b5b90600052602060002090600702016000015460088281548110611137576111366135d9565b5b90600052602060002090600702016001016008838154811061115c5761115b6135d9565b5b906000526020600020906007020160020160088481548110611181576111806135d9565b5b9060005260206000209060070201600301600885815481106111a6576111a56135d9565b5b9060005260206000209060070201600401600886815481106111cb576111ca6135d9565b5b906000526020600020906007020160050160009054906101000a900473ffffffffffffffffffffffffffffffffffffffff1660088781548110611211576112106135d9565b5b90600052602060002090600702016006015485805461122f9061338f565b80601f016020809104026020016040519081016040528092919081815260200182805461125b9061338f565b80156112a85780601f1061127d576101008083540402835291602001916112a8565b820191906000526020600020905b81548152906001019060200180831161128b57829003601f168201915b505050505095508480546112bb9061338f565b80601f01602080910402602001604051908101604052809291908181526020018280546112e79061338f565b80156113345780601f1061130957610100808354040283529160200191611334565b820191906000526020600020905b81548152906001019060200180831161131757829003601f168201915b505050505094508380546113479061338f565b80601f01602080910402602001604051908101604052809291908181526020018280546113739061338f565b80156113c05780601f10611395576101008083540402835291602001916113c0565b820191906000526020600020905b8154815290600101906020018083116113a357829003601f168201915b505050505093508280546113d39061338f565b80601f01602080910402602001604051908101604052809291908181526020018280546113ff9061338f565b801561144c5780601f106114215761010080835404028352916020019161144c565b820191906000526020600020905b81548152906001019060200180831161142f57829003601f168201915b50505050509250975097509750975097509750975050919395979092949650565b6060600060088054905067ffffffffffffffff8111156114905761148f612d76565b5b6040519080825280602002602001820160405280156114c957816020015b6114b6612953565b8152602001906001900390816114ae5790505b50905060005b6008805490508110156117f2576000600882815481106114f2576114f16135d9565b5b90600052602060002090600702019050806040518060e0016040529081600082015481526020016001820180546115289061338f565b80601f01602080910402602001604051908101604052809291908181526020018280546115549061338f565b80156115a15780601f10611576576101008083540402835291602001916115a1565b820191906000526020600020905b81548152906001019060200180831161158457829003601f168201915b505050505081526020016002820180546115ba9061338f565b80601f01602080910402602001604051908101604052809291908181526020018280546115e69061338f565b80156116335780601f1061160857610100808354040283529160200191611633565b820191906000526020600020905b81548152906001019060200180831161161657829003601f168201915b5050505050815260200160038201805461164c9061338f565b80601f01602080910402602001604051908101604052809291908181526020018280546116789061338f565b80156116c55780601f1061169a576101008083540402835291602001916116c5565b820191906000526020600020905b8154815290600101906020018083116116a857829003601f168201915b505050505081526020016004820180546116de9061338f565b80601f016020809104026020016040519081016040528092919081815260200182805461170a9061338f565b80156117575780601f1061172c57610100808354040283529160200191611757565b820191906000526020600020905b81548152906001019060200180831161173a57829003601f168201915b505050505081526020016005820160009054906101000a900473ffffffffffffffffffffffffffffffffffffffff1673ffffffffffffffffffffffffffffffffffffffff1673ffffffffffffffffffffffffffffffffffffffff1681526020016006820154815250508383815181106117d3576117d26135d9565b5b60200260200101819052505080806117ea90613918565b9150506114cf565b508091505090565b6060600180546118099061338f565b80601f01602080910402602001604051908101604052809291908181526020018280546118359061338f565b80156118825780601f1061185757610100808354040283529160200191611882565b820191906000526020600020905b81548152906001019060200180831161186557829003601f168201915b5050505050905090565b61189e611897611be1565b838361228a565b5050565b6118b36118ad611be1565b83611ca2565b6118f2576040517f08c379a00000000000000000000000000000000000000000000000000000000081526004016118e990613556565b60405180910390fd5b6118fe848484846123f6565b50505050565b6000600754905090565b606061191982611b96565b60006006600084815260200190815260200160002080546119399061338f565b80601f01602080910402602001604051908101604052809291908181526020018280546119659061338f565b80156119b25780601f10611987576101008083540402835291602001916119b2565b820191906000526020600020905b81548152906001019060200180831161199557829003601f168201915b5050505050905060006119c3612452565b905060008151036119d8578192505050611a1b565b600082511115611a0d5780826040516020016119f5929190613a9a565b60405160208183030381529060405292505050611a1b565b611a1684612469565b925050505b919050565b6000600560008473ffffffffffffffffffffffffffffffffffffffff1673ffffffffffffffffffffffffffffffffffffffff16815260200190815260200160002060008373ffffffffffffffffffffffffffffffffffffffff1673ffffffffffffffffffffffffffffffffffffffff16815260200190815260200160002060009054906101000a900460ff16905092915050565b60007f80ac58cd000000000000000000000000000000000000000000000000000000007bffffffffffffffffffffffffffffffffffffffffffffffffffffffff1916827bffffffffffffffffffffffffffffffffffffffffffffffffffffffff19161480611b7f57507f5b5e139f000000000000000000000000000000000000000000000000000000007bffffffffffffffffffffffffffffffffffffffffffffffffffffffff1916827bffffffffffffffffffffffffffffffffffffffffffffffffffffffff1916145b80611b8f5750611b8e826124d1565b5b9050919050565b611b9f8161253b565b611bde576040517f08c379a0000000000000000000000000000000000000000000000000000000008152600401611bd5906139ac565b60405180910390fd5b50565b600033905090565b816004600083815260200190815260200160002060006101000a81548173ffffffffffffffffffffffffffffffffffffffff021916908373ffffffffffffffffffffffffffffffffffffffff160217905550808273ffffffffffffffffffffffffffffffffffffffff16611c5c83610eaa565b73ffffffffffffffffffffffffffffffffffffffff167f8c5be1e5ebec7d5bd14f71427d1e84f3dd0314c0f7b2291e5b200ac8c7c3b92560405160405180910390a45050565b600080611cae83610eaa565b90508073ffffffffffffffffffffffffffffffffffffffff168473ffffffffffffffffffffffffffffffffffffffff161480611cf05750611cef8185611a20565b5b80611d2e57508373ffffffffffffffffffffffffffffffffffffffff16611d1684610592565b73ffffffffffffffffffffffffffffffffffffffff16145b91505092915050565b8273ffffffffffffffffffffffffffffffffffffffff16611d5782610eaa565b73ffffffffffffffffffffffffffffffffffffffff1614611dad576040517f08c379a0000000000000000000000000000000000000000000000000000000008152600401611da490613b30565b60405180910390fd5b600073ffffffffffffffffffffffffffffffffffffffff168273ffffffffffffffffffffffffffffffffffffffff1603611e1c576040517f08c379a0000000000000000000000000000000000000000000000000000000008152600401611e1390613bc2565b60405180910390fd5b611e29838383600161257c565b8273ffffffffffffffffffffffffffffffffffffffff16611e4982610eaa565b73ffffffffffffffffffffffffffffffffffffffff1614611e9f576040517f08c379a0000000000000000000000000000000000000000000000000000000008152600401611e9690613b30565b60405180910390fd5b6004600082815260200190815260200160002060006101000a81549073ffffffffffffffffffffffffffffffffffffffff02191690556001600360008573ffffffffffffffffffffffffffffffffffffffff1673ffffffffffffffffffffffffffffffffffffffff168152602001908152602001600020600082825403925050819055506001600360008473ffffffffffffffffffffffffffffffffffffffff1673ffffffffffffffffffffffffffffffffffffffff16815260200190815260200160002060008282540192505081905550816002600083815260200190815260200160002060006101000a81548173ffffffffffffffffffffffffffffffffffffffff021916908373ffffffffffffffffffffffffffffffffffffffff160217905550808273ffffffffffffffffffffffffffffffffffffffff168473ffffffffffffffffffffffffffffffffffffffff167fddf252ad1be2c89b69c2b068fc378daa952ba7f163c4a11628f55a4df523b3ef60405160405180910390a461202b8383836001612582565b505050565b600073ffffffffffffffffffffffffffffffffffffffff168273ffffffffffffffffffffffffffffffffffffffff160361209f576040517f08c379a000000000000000000000000000000000000000000000000000000000815260040161209690613c2e565b60405180910390fd5b6120a88161253b565b156120e8576040517f08c379a00000000000000000000000000000000000000000000000000000000081526004016120df90613c9a565b60405180910390fd5b6120f660008383600161257c565b6120ff8161253b565b1561213f576040517f08c379a000000000000000000000000000000000000000000000000000000000815260040161213690613c9a565b60405180910390fd5b6001600360008473ffffffffffffffffffffffffffffffffffffffff1673ffffffffffffffffffffffffffffffffffffffff16815260200190815260200160002060008282540192505081905550816002600083815260200190815260200160002060006101000a81548173ffffffffffffffffffffffffffffffffffffffff021916908373ffffffffffffffffffffffffffffffffffffffff160217905550808273ffffffffffffffffffffffffffffffffffffffff16600073ffffffffffffffffffffffffffffffffffffffff167fddf252ad1be2c89b69c2b068fc378daa952ba7f163c4a11628f55a4df523b3ef60405160405180910390a4612249600083836001612582565b5050565b60006002600083815260200190815260200160002060009054906101000a900473ffffffffffffffffffffffffffffffffffffffff169050919050565b8173ffffffffffffffffffffffffffffffffffffffff168373ffffffffffffffffffffffffffffffffffffffff16036122f8576040517f08c379a00000000000000000000000000000000000000000000000000000000081526004016122ef90613d06565b60405180910390fd5b80600560008573ffffffffffffffffffffffffffffffffffffffff1673ffffffffffffffffffffffffffffffffffffffff16815260200190815260200160002060008473ffffffffffffffffffffffffffffffffffffffff1673ffffffffffffffffffffffffffffffffffffffff16815260200190815260200160002060006101000a81548160ff0219169083151502179055508173ffffffffffffffffffffffffffffffffffffffff168373ffffffffffffffffffffffffffffffffffffffff167f17307eab39ab6107e8899845ad3d59bd9653f200f220920489ca2b5937696c31836040516123e99190612a5a565b60405180910390a3505050565b612401848484611d37565b61240d84848484612588565b61244c576040517f08c379a000000000000000000000000000000000000000000000000000000000815260040161244390613d98565b60405180910390fd5b50505050565b606060405180602001604052806000815250905090565b606061247482611b96565b600061247e612452565b9050600081511161249e57604051806020016040528060008152506124c9565b806124a88461270f565b6040516020016124b9929190613a9a565b6040516020818303038152906040525b915050919050565b60007f01ffc9a7000000000000000000000000000000000000000000000000000000007bffffffffffffffffffffffffffffffffffffffffffffffffffffffff1916827bffffffffffffffffffffffffffffffffffffffffffffffffffffffff1916149050919050565b60008073ffffffffffffffffffffffffffffffffffffffff1661255d8361224d565b73ffffffffffffffffffffffffffffffffffffffff1614159050919050565b50505050565b50505050565b60006125a98473ffffffffffffffffffffffffffffffffffffffff166127dd565b15612702578373ffffffffffffffffffffffffffffffffffffffff1663150b7a026125d2611be1565b8786866040518563ffffffff1660e01b81526004016125f49493929190613e0d565b6020604051808303816000875af192505050801561263057506040513d601f19601f8201168201806040525081019061262d9190613e6e565b60015b6126b2573d8060008114612660576040519150601f19603f3d011682016040523d82523d6000602084013e612665565b606091505b5060008151036126aa576040517f08c379a00000000000000000000000000000000000000000000000000000000081526004016126a190613d98565b60405180910390fd5b805181602001fd5b63150b7a0260e01b7bffffffffffffffffffffffffffffffffffffffffffffffffffffffff1916817bffffffffffffffffffffffffffffffffffffffffffffffffffffffff191614915050612707565b600190505b949350505050565b60606000600161271e84612800565b01905060008167ffffffffffffffff81111561273d5761273c612d76565b5b6040519080825280601f01601f19166020018201604052801561276f5781602001600182028036833780820191505090505b509050600082602001820190505b6001156127d2578080600190039150507f3031323334353637383961626364656600000000000000000000000000000000600a86061a8153600a85816127c6576127c5613e9b565b5b0494506000850361277d575b819350505050919050565b6000808273ffffffffffffffffffffffffffffffffffffffff163b119050919050565b600080600090507a184f03e93ff9f4daa797ed6e38ed64bf6a1f010000000000000000831061285e577a184f03e93ff9f4daa797ed6e38ed64bf6a1f010000000000000000838161285457612853613e9b565b5b0492506040810190505b6d04ee2d6d415b85acef8100000000831061289b576d04ee2d6d415b85acef8100000000838161289157612890613e9b565b5b0492506020810190505b662386f26fc1000083106128ca57662386f26fc1000083816128c0576128bf613e9b565b5b0492506010810190505b6305f5e10083106128f3576305f5e10083816128e9576128e8613e9b565b5b0492506008810190505b612710831061291857612710838161290e5761290d613e9b565b5b0492506004810190505b6064831061293b576064838161293157612930613e9b565b5b0492506002810190505b600a831061294a576001810190505b80915050919050565b6040518060e001604052806000815260200160608152602001606081526020016060815260200160608152602001600073ffffffffffffffffffffffffffffffffffffffff168152602001600081525090565b6000604051905090565b600080fd5b600080fd5b60007fffffffff0000000000000000000000000000000000000000000000000000000082169050919050565b6129ef816129ba565b81146129fa57600080fd5b50565b600081359050612a0c816129e6565b92915050565b600060208284031215612a2857612a276129b0565b5b6000612a36848285016129fd565b91505092915050565b60008115159050919050565b612a5481612a3f565b82525050565b6000602082019050612a6f6000830184612a4b565b92915050565b600081519050919050565b600082825260208201905092915050565b60005b83811015612aaf578082015181840152602081019050612a94565b60008484015250505050565b6000601f19601f8301169050919050565b6000612ad782612a75565b612ae18185612a80565b9350612af1818560208601612a91565b612afa81612abb565b840191505092915050565b60006020820190508181036000830152612b1f8184612acc565b905092915050565b6000819050919050565b612b3a81612b27565b8114612b4557600080fd5b50565b600081359050612b5781612b31565b92915050565b600060208284031215612b7357612b726129b0565b5b6000612b8184828501612b48565b91505092915050565b600073ffffffffffffffffffffffffffffffffffffffff82169050919050565b6000612bb582612b8a565b9050919050565b612bc581612baa565b82525050565b6000602082019050612be06000830184612bbc565b92915050565b612bef81612baa565b8114612bfa57600080fd5b50565b600081359050612c0c81612be6565b92915050565b60008060408385031215612c2957612c286129b0565b5b6000612c3785828601612bfd565b9250506020612c4885828601612b48565b9150509250929050565b600080600060608486031215612c6b57612c6a6129b0565b5b6000612c7986828701612bfd565b9350506020612c8a86828701612bfd565b9250506040612c9b86828701612b48565b9150509250925092565b600060208284031215612cbb57612cba6129b0565b5b6000612cc984828501612bfd565b91505092915050565b612cdb81612b27565b82525050565b600060e082019050612cf6600083018a612cd2565b8181036020830152612d088189612acc565b90508181036040830152612d1c8188612acc565b90508181036060830152612d308187612acc565b90508181036080830152612d448186612acc565b9050612d5360a0830185612bbc565b612d6060c0830184612cd2565b98975050505050505050565b600080fd5b600080fd5b7f4e487b7100000000000000000000000000000000000000000000000000000000600052604160045260246000fd5b612dae82612abb565b810181811067ffffffffffffffff82111715612dcd57612dcc612d76565b5b80604052505050565b6000612de06129a6565b9050612dec8282612da5565b919050565b600067ffffffffffffffff821115612e0c57612e0b612d76565b5b612e1582612abb565b9050602081019050919050565b82818337600083830152505050565b6000612e44612e3f84612df1565b612dd6565b905082815260208101848484011115612e6057612e5f612d71565b5b612e6b848285612e22565b509392505050565b600082601f830112612e8857612e87612d6c565b5b8135612e98848260208601612e31565b91505092915050565b60008060008060808587031215612ebb57612eba6129b0565b5b600085013567ffffffffffffffff811115612ed957612ed86129b5565b5b612ee587828801612e73565b945050602085013567ffffffffffffffff811115612f0657612f056129b5565b5b612f1287828801612e73565b935050604085013567ffffffffffffffff811115612f3357612f326129b5565b5b612f3f87828801612e73565b925050606085013567ffffffffffffffff811115612f6057612f5f6129b5565b5b612f6c87828801612e73565b91505092959194509250565b6000602082019050612f8d6000830184612cd2565b92915050565b600081519050919050565b600082825260208201905092915050565b6000819050602082019050919050565b612fc881612b27565b82525050565b600082825260208201905092915050565b6000612fea82612a75565b612ff48185612fce565b9350613004818560208601612a91565b61300d81612abb565b840191505092915050565b61302181612baa565b82525050565b600060e08301600083015161303f6000860182612fbf565b50602083015184820360208601526130578282612fdf565b915050604083015184820360408601526130718282612fdf565b9150506060830151848203606086015261308b8282612fdf565b915050608083015184820360808601526130a58282612fdf565b91505060a08301516130ba60a0860182613018565b5060c08301516130cd60c0860182612fbf565b508091505092915050565b60006130e48383613027565b905092915050565b6000602082019050919050565b600061310482612f93565b61310e8185612f9e565b93508360208202850161312085612faf565b8060005b8581101561315c578484038952815161313d85826130d8565b9450613148836130ec565b925060208a01995050600181019050613124565b50829750879550505050505092915050565b6000602082019050818103600083015261318881846130f9565b905092915050565b61319981612a3f565b81146131a457600080fd5b50565b6000813590506131b681613190565b92915050565b600080604083850312156131d3576131d26129b0565b5b60006131e185828601612bfd565b92505060206131f2858286016131a7565b9150509250929050565b600067ffffffffffffffff82111561321757613216612d76565b5b61322082612abb565b9050602081019050919050565b600061324061323b846131fc565b612dd6565b90508281526020810184848401111561325c5761325b612d71565b5b613267848285612e22565b509392505050565b600082601f83011261328457613283612d6c565b5b813561329484826020860161322d565b91505092915050565b600080600080608085870312156132b7576132b66129b0565b5b60006132c587828801612bfd565b94505060206132d687828801612bfd565b93505060406132e787828801612b48565b925050606085013567ffffffffffffffff811115613308576133076129b5565b5b6133148782880161326f565b91505092959194509250565b60008060408385031215613337576133366129b0565b5b600061334585828601612bfd565b925050602061335685828601612bfd565b9150509250929050565b7f4e487b7100000000000000000000000000000000000000000000000000000000600052602260045260246000fd5b600060028204905060018216806133a757607f821691505b6020821081036133ba576133b9613360565b5b50919050565b7f4552433732313a20617070726f76616c20746f2063757272656e74206f776e6560008201527f7200000000000000000000000000000000000000000000000000000000000000602082015250565b600061341c602183612a80565b9150613427826133c0565b604082019050919050565b6000602082019050818103600083015261344b8161340f565b9050919050565b7f4552433732313a20617070726f76652063616c6c6572206973206e6f7420746f60008201527f6b656e206f776e6572206f7220617070726f76656420666f7220616c6c000000602082015250565b60006134ae603d83612a80565b91506134b982613452565b604082019050919050565b600060208201905081810360008301526134dd816134a1565b9050919050565b7f4552433732313a2063616c6c6572206973206e6f7420746f6b656e206f776e6560008201527f72206f7220617070726f76656400000000000000000000000000000000000000602082015250565b6000613540602d83612a80565b915061354b826134e4565b604082019050919050565b6000602082019050818103600083015261356f81613533565b9050919050565b7f4e487b7100000000000000000000000000000000000000000000000000000000600052601160045260246000fd5b60006135b082612b27565b91506135bb83612b27565b92508282039050818111156135d3576135d2613576565b5b92915050565b7f4e487b7100000000000000000000000000000000000000000000000000000000600052603260045260246000fd5b7f596f7520616c7265616479206861766520612073746f726520696e20706c616360008201527f6500000000000000000000000000000000000000000000000000000000000000602082015250565b6000613664602183612a80565b915061366f82613608565b604082019050919050565b6000602082019050818103600083015261369381613657565b9050919050565b60008190508160005260206000209050919050565b60006020601f8301049050919050565b600082821b905092915050565b6000600883026136fc7fffffffffffffffffffffffffffffffffffffffffffffffffffffffffffffffff826136bf565b61370686836136bf565b95508019841693508086168417925050509392505050565b6000819050919050565b600061374361373e61373984612b27565b61371e565b612b27565b9050919050565b6000819050919050565b61375d83613728565b6137716137698261374a565b8484546136cc565b825550505050565b600090565b613786613779565b613791818484613754565b505050565b5b818110156137b5576137aa60008261377e565b600181019050613797565b5050565b601f8211156137fa576137cb8161369a565b6137d4846136af565b810160208510156137e3578190505b6137f76137ef856136af565b830182613796565b50505b505050565b600082821c905092915050565b600061381d600019846008026137ff565b1980831691505092915050565b6000613836838361380c565b9150826002028217905092915050565b61384f82612a75565b67ffffffffffffffff81111561386857613867612d76565b5b613872825461338f565b61387d8282856137b9565b600060209050601f8311600181146138b0576000841561389e578287015190505b6138a8858261382a565b865550613910565b601f1984166138be8661369a565b60005b828110156138e6578489015182556001820191506020850194506020810190506138c1565b8683101561390357848901516138ff601f89168261380c565b8355505b6001600288020188555050505b505050505050565b600061392382612b27565b91507fffffffffffffffffffffffffffffffffffffffffffffffffffffffffffffffff820361395557613954613576565b5b600182019050919050565b7f4552433732313a20696e76616c696420746f6b656e2049440000000000000000600082015250565b6000613996601883612a80565b91506139a182613960565b602082019050919050565b600060208201905081810360008301526139c581613989565b9050919050565b7f4552433732313a2061646472657373207a65726f206973206e6f74206120766160008201527f6c6964206f776e65720000000000000000000000000000000000000000000000602082015250565b6000613a28602983612a80565b9150613a33826139cc565b604082019050919050565b60006020820190508181036000830152613a5781613a1b565b9050919050565b600081905092915050565b6000613a7482612a75565b613a7e8185613a5e565b9350613a8e818560208601612a91565b80840191505092915050565b6000613aa68285613a69565b9150613ab28284613a69565b91508190509392505050565b7f4552433732313a207472616e736665722066726f6d20696e636f72726563742060008201527f6f776e6572000000000000000000000000000000000000000000000000000000602082015250565b6000613b1a602583612a80565b9150613b2582613abe565b604082019050919050565b60006020820190508181036000830152613b4981613b0d565b9050919050565b7f4552433732313a207472616e7366657220746f20746865207a65726f2061646460008201527f7265737300000000000000000000000000000000000000000000000000000000602082015250565b6000613bac602483612a80565b9150613bb782613b50565b604082019050919050565b60006020820190508181036000830152613bdb81613b9f565b9050919050565b7f4552433732313a206d696e7420746f20746865207a65726f2061646472657373600082015250565b6000613c18602083612a80565b9150613c2382613be2565b602082019050919050565b60006020820190508181036000830152613c4781613c0b565b9050919050565b7f4552433732313a20746f6b656e20616c7265616479206d696e74656400000000600082015250565b6000613c84601c83612a80565b9150613c8f82613c4e565b602082019050919050565b60006020820190508181036000830152613cb381613c77565b9050919050565b7f4552433732313a20617070726f766520746f2063616c6c657200000000000000600082015250565b6000613cf0601983612a80565b9150613cfb82613cba565b602082019050919050565b60006020820190508181036000830152613d1f81613ce3565b9050919050565b7f4552433732313a207472616e7366657220746f206e6f6e20455243373231526560008201527f63656976657220696d706c656d656e7465720000000000000000000000000000602082015250565b6000613d82603283612a80565b9150613d8d82613d26565b604082019050919050565b60006020820190508181036000830152613db181613d75565b9050919050565b600081519050919050565b600082825260208201905092915050565b6000613ddf82613db8565b613de98185613dc3565b9350613df9818560208601612a91565b613e0281612abb565b840191505092915050565b6000608082019050613e226000830187612bbc565b613e2f6020830186612bbc565b613e3c6040830185612cd2565b8181036060830152613e4e8184613dd4565b905095945050505050565b600081519050613e68816129e6565b92915050565b600060208284031215613e8457613e836129b0565b5b6000613e9284828501613e59565b91505092915050565b7f4e487b7100000000000000000000000000000000000000000000000000000000600052601260045260246000fdfea2646970667358221220391531c9815ad620ffa92c58a1082554dd7539f4dd3c153042482daf08b4806064736f6c63430008120033",
  "linkReferences": {},
  "deployedLinkReferences": {}
}